{
  "contractName": "Token",
  "abi": [
    {
      "inputs": [
        {
          "internalType": "string",
          "name": "name_",
          "type": "string"
        },
        {
          "internalType": "string",
          "name": "symbol_",
          "type": "string"
        },
        {
          "internalType": "uint256",
          "name": "supply_",
          "type": "uint256"
        }
      ],
      "stateMutability": "nonpayable",
      "type": "constructor"
    },
    {
      "anonymous": false,
      "inputs": [
        {
          "indexed": true,
          "internalType": "address",
          "name": "owner",
          "type": "address"
        },
        {
          "indexed": true,
          "internalType": "address",
          "name": "spender",
          "type": "address"
        },
        {
          "indexed": false,
          "internalType": "uint256",
          "name": "value",
          "type": "uint256"
        }
      ],
      "name": "Approval",
      "type": "event"
    },
    {
      "anonymous": false,
      "inputs": [
        {
          "indexed": true,
          "internalType": "address",
          "name": "depositer",
          "type": "address"
        },
        {
          "indexed": false,
          "internalType": "uint256",
          "name": "amount",
          "type": "uint256"
        }
      ],
      "name": "Deposit",
      "type": "event"
    },
    {
      "anonymous": false,
      "inputs": [
        {
          "indexed": true,
          "internalType": "address",
          "name": "from",
          "type": "address"
        },
        {
          "indexed": true,
          "internalType": "address",
          "name": "to",
          "type": "address"
        },
        {
          "indexed": false,
          "internalType": "uint256",
          "name": "value",
          "type": "uint256"
        }
      ],
      "name": "Transfer",
      "type": "event"
    },
    {
      "anonymous": false,
      "inputs": [
        {
          "indexed": true,
          "internalType": "uint256",
          "name": "id",
          "type": "uint256"
        },
        {
          "indexed": true,
          "internalType": "address",
          "name": "withdrawer",
          "type": "address"
        },
        {
          "indexed": false,
          "internalType": "uint256",
          "name": "amount",
          "type": "uint256"
        }
      ],
      "name": "Withdrawal",
      "type": "event"
    },
    {
      "anonymous": false,
      "inputs": [
        {
          "indexed": false,
          "internalType": "uint256",
          "name": "from",
          "type": "uint256"
        },
        {
          "indexed": false,
          "internalType": "uint256",
          "name": "to",
          "type": "uint256"
        },
        {
          "indexed": false,
          "internalType": "uint256",
          "name": "batchSize",
          "type": "uint256"
        }
      ],
      "name": "WithdrawalHandled",
      "type": "event"
    },
    {
      "inputs": [],
      "name": "admin",
      "outputs": [
        {
          "internalType": "address",
          "name": "",
          "type": "address"
        }
      ],
      "stateMutability": "view",
      "type": "function"
    },
    {
      "inputs": [
        {
          "internalType": "address",
          "name": "owner",
          "type": "address"
        },
        {
          "internalType": "address",
          "name": "spender",
          "type": "address"
        }
      ],
      "name": "allowance",
      "outputs": [
        {
          "internalType": "uint256",
          "name": "",
          "type": "uint256"
        }
      ],
      "stateMutability": "view",
      "type": "function"
    },
    {
      "inputs": [
        {
          "internalType": "address",
          "name": "spender",
          "type": "address"
        },
        {
          "internalType": "uint256",
          "name": "amount",
          "type": "uint256"
        }
      ],
      "name": "approve",
      "outputs": [
        {
          "internalType": "bool",
          "name": "",
          "type": "bool"
        }
      ],
      "stateMutability": "nonpayable",
      "type": "function"
    },
    {
      "inputs": [
        {
          "internalType": "address",
          "name": "account",
          "type": "address"
        }
      ],
      "name": "balanceOf",
      "outputs": [
        {
          "internalType": "uint256",
          "name": "",
          "type": "uint256"
        }
      ],
      "stateMutability": "view",
      "type": "function"
    },
    {
      "inputs": [],
      "name": "decimals",
      "outputs": [
        {
          "internalType": "uint8",
          "name": "",
          "type": "uint8"
        }
      ],
      "stateMutability": "view",
      "type": "function"
    },
    {
      "inputs": [
        {
          "internalType": "address",
          "name": "spender",
          "type": "address"
        },
        {
          "internalType": "uint256",
          "name": "subtractedValue",
          "type": "uint256"
        }
      ],
      "name": "decreaseAllowance",
      "outputs": [
        {
          "internalType": "bool",
          "name": "",
          "type": "bool"
        }
      ],
      "stateMutability": "nonpayable",
      "type": "function"
    },
    {
      "inputs": [
        {
          "internalType": "address",
          "name": "",
          "type": "address"
        }
      ],
      "name": "deposits",
      "outputs": [
        {
          "internalType": "uint256",
          "name": "",
          "type": "uint256"
        }
      ],
      "stateMutability": "view",
      "type": "function"
    },
    {
      "inputs": [
        {
          "internalType": "address",
          "name": "spender",
          "type": "address"
        },
        {
          "internalType": "uint256",
          "name": "addedValue",
          "type": "uint256"
        }
      ],
      "name": "increaseAllowance",
      "outputs": [
        {
          "internalType": "bool",
          "name": "",
          "type": "bool"
        }
      ],
      "stateMutability": "nonpayable",
      "type": "function"
    },
    {
      "inputs": [],
      "name": "name",
      "outputs": [
        {
          "internalType": "string",
          "name": "",
          "type": "string"
        }
      ],
      "stateMutability": "view",
      "type": "function"
    },
    {
      "inputs": [],
      "name": "pendingWithdrawals",
      "outputs": [
        {
          "internalType": "uint256",
          "name": "",
          "type": "uint256"
        }
      ],
      "stateMutability": "view",
      "type": "function"
    },
    {
      "inputs": [],
      "name": "symbol",
      "outputs": [
        {
          "internalType": "string",
          "name": "",
          "type": "string"
        }
      ],
      "stateMutability": "view",
      "type": "function"
    },
    {
      "inputs": [],
      "name": "totalSupply",
      "outputs": [
        {
          "internalType": "uint256",
          "name": "",
          "type": "uint256"
        }
      ],
      "stateMutability": "view",
      "type": "function"
    },
    {
      "inputs": [
        {
          "internalType": "address",
          "name": "recipient",
          "type": "address"
        },
        {
          "internalType": "uint256",
          "name": "amount",
          "type": "uint256"
        }
      ],
      "name": "transfer",
      "outputs": [
        {
          "internalType": "bool",
          "name": "",
          "type": "bool"
        }
      ],
      "stateMutability": "nonpayable",
      "type": "function"
    },
    {
      "inputs": [
        {
          "internalType": "address",
          "name": "sender",
          "type": "address"
        },
        {
          "internalType": "address",
          "name": "recipient",
          "type": "address"
        },
        {
          "internalType": "uint256",
          "name": "amount",
          "type": "uint256"
        }
      ],
      "name": "transferFrom",
      "outputs": [
        {
          "internalType": "bool",
          "name": "",
          "type": "bool"
        }
      ],
      "stateMutability": "nonpayable",
      "type": "function"
    },
    {
      "inputs": [
        {
          "internalType": "uint256",
          "name": "",
          "type": "uint256"
        }
      ],
      "name": "withdraws",
      "outputs": [
        {
          "internalType": "address",
          "name": "withdrawer",
          "type": "address"
        },
        {
          "internalType": "uint256",
          "name": "amount",
          "type": "uint256"
        }
      ],
      "stateMutability": "view",
      "type": "function"
    },
    {
      "inputs": [
        {
          "internalType": "uint256",
          "name": "amount",
          "type": "uint256"
        }
      ],
      "name": "deposit",
      "outputs": [],
      "stateMutability": "nonpayable",
      "type": "function"
    },
    {
      "inputs": [
        {
          "internalType": "uint256",
          "name": "amount",
          "type": "uint256"
        }
      ],
      "name": "withdraw",
      "outputs": [],
      "stateMutability": "nonpayable",
      "type": "function"
    },
    {
      "inputs": [
        {
          "internalType": "uint256",
          "name": "batchSize",
          "type": "uint256"
        }
      ],
      "name": "handleWithdrawals",
      "outputs": [],
      "stateMutability": "nonpayable",
      "type": "function"
    }
  ],
  "bytecode": "0x60806040523480156200001157600080fd5b50604051620012c1380380620012c18339810160408190526200003491620002cb565b8251839083906200004d9060039060208501906200017a565b508051620000639060049060208401906200017a565b5050506200007833826200009360201b60201c565b5050600580546001600160a01b0319163317905550620003f3565b6001600160a01b038216620000c55760405162461bcd60e51b8152600401620000bc906200033b565b60405180910390fd5b620000d36000838362000175565b8060026000828254620000e791906200037b565b90915550506001600160a01b03821660009081526020819052604081208054839290620001169084906200037b565b90915550506040516001600160a01b038316906000907fddf252ad1be2c89b69c2b068fc378daa952ba7f163c4a11628f55a4df523b3ef906200015b90859062000372565b60405180910390a3620001716000838362000175565b5050565b505050565b8280546200018890620003a0565b90600052602060002090601f016020900481019282620001ac5760008555620001f7565b82601f10620001c757805160ff1916838001178555620001f7565b82800160010185558215620001f7579182015b82811115620001f7578251825591602001919060010190620001da565b506200020592915062000209565b5090565b5b808211156200020557600081556001016200020a565b600082601f83011262000231578081fd5b81516001600160401b03808211156200024e576200024e620003dd565b6040516020601f8401601f1916820181018381118382101715620002765762000276620003dd565b60405283825285840181018710156200028d578485fd5b8492505b83831015620002b0578583018101518284018201529182019162000291565b83831115620002c157848185840101525b5095945050505050565b600080600060608486031215620002e0578283fd5b83516001600160401b0380821115620002f7578485fd5b620003058783880162000220565b945060208601519150808211156200031b578384fd5b506200032a8682870162000220565b925050604084015190509250925092565b6020808252601f908201527f45524332303a206d696e7420746f20746865207a65726f206164647265737300604082015260600190565b90815260200190565b600082198211156200039b57634e487b7160e01b81526011600452602481fd5b500190565b600281046001821680620003b557607f821691505b60208210811415620003d757634e487b7160e01b600052602260045260246000fd5b50919050565b634e487b7160e01b600052604160045260246000fd5b610ebe80620004036000396000f3fe608060405234801561001057600080fd5b50600436106101165760003560e01c806370a08231116100a2578063b6b55f2511610071578063b6b55f2514610233578063beca03d514610246578063dd62ed3e1461024e578063f851a44014610261578063fc7e286d1461027657610116565b806370a08231146101f257806395d89b4114610205578063a457c2d71461020d578063a9059cbb1461022057610116565b806323b872dd116100e957806323b872dd146101835780632e1a7d4d14610196578063313ce567146101a957806339509351146101be57806355466c37146101d157610116565b806301b86d121461011b57806306fdde0314610130578063095ea7b31461014e57806318160ddd1461016e575b600080fd5b61012e610129366004610a97565b610289565b005b6101386103b5565b6040516101459190610ae7565b60405180910390f35b61016161015c366004610a6e565b610447565b6040516101459190610adc565b610176610464565b6040516101459190610dc0565b610161610191366004610a33565b61046a565b61012e6101a4366004610a97565b6104fa565b6101b16105bf565b6040516101459190610ddf565b6101616101cc366004610a6e565b6105c4565b6101e46101df366004610a97565b610618565b604051610145929190610ac3565b6101766102003660046109e7565b61063d565b61013861065c565b61016161021b366004610a6e565b61066b565b61016161022e366004610a6e565b6106e4565b61012e610241366004610a97565b6106f8565b610176610778565b61017661025c366004610a01565b61077e565b6102696107a9565b6040516101459190610aaf565b6101766102843660046109e7565b6107b8565b6005546001600160a01b031633146102bc5760405162461bcd60e51b81526004016102b390610d44565b60405180910390fd5b6000600654116102de5760405162461bcd60e51b81526004016102b390610c84565b60065460005b82811015610373576005546006546000908152600860205260409020805460019091015461031f926001600160a01b039081169216906107ca565b60068054600090815260086020526040812080546001600160a01b03191681556001908101919091559054610353916108f4565b600681905561036157610373565b8061036b81610e57565b9150506102e4565b507f50d9276253fcd2b3025af851fb64fdacaa8a7c62ad274e5d54595d2b84a1605481600654846040516103a993929190610dc9565b60405180910390a15050565b6060600380546103c490610e1c565b80601f01602080910402602001604051908101604052809291908181526020018280546103f090610e1c565b801561043d5780601f106104125761010080835404028352916020019161043d565b820191906000526020600020905b81548152906001019060200180831161042057829003601f168201915b5050505050905090565b600061045b610454610907565b848461090b565b50600192915050565b60025490565b60006104778484846107ca565b6001600160a01b038416600090815260016020526040812081610498610907565b6001600160a01b03166001600160a01b03168152602001908152602001600020549050828110156104db5760405162461bcd60e51b81526004016102b390610c3c565b6104ef856104e7610907565b85840361090b565b506001949350505050565b336000908152600760205260409020548111156105295760405162461bcd60e51b81526004016102b390610bbf565b6006546105379060016109bf565b60068181556040805180820182523380825260208083018781526000968752600890915294839020915182546001600160a01b0319166001600160a01b039091161782559351600190910155905490517f37e8063b72a944a76de602f32b82fd8c2a1c6f99564c727ffaf913c7762cd420906105b4908590610dc0565b60405180910390a350565b601290565b600061045b6105d1610907565b8484600160006105df610907565b6001600160a01b03908116825260208083019390935260409182016000908120918b16815292529020546106139190610ded565b61090b565b600860205260009081526040902080546001909101546001600160a01b039091169082565b6001600160a01b0381166000908152602081905260409020545b919050565b6060600480546103c490610e1c565b6000806001600061067a610907565b6001600160a01b03908116825260208083019390935260409182016000908120918816815292529020549050828110156106c65760405162461bcd60e51b81526004016102b390610d7b565b6106da6106d1610907565b8585840361090b565b5060019392505050565b600061045b6106f1610907565b84846107ca565b60055461070e906001600160a01b0316826106e4565b503360009081526007602052604090205461072990826109bf565b33600081815260076020526040908190209290925590517fe1fffcc4923d04b559f4d29a8bfc6cda04eb5b0d3c460751c2402c5c5cc9109c9061076d908490610dc0565b60405180910390a250565b60065481565b6001600160a01b03918216600090815260016020908152604080832093909416825291909152205490565b6005546001600160a01b031681565b60076020526000908152604090205481565b6001600160a01b0383166107f05760405162461bcd60e51b81526004016102b390610cbb565b6001600160a01b0382166108165760405162461bcd60e51b81526004016102b390610b3a565b6108218383836109cb565b6001600160a01b0383166000908152602081905260409020548181101561085a5760405162461bcd60e51b81526004016102b390610bf6565b6001600160a01b03808516600090815260208190526040808220858503905591851681529081208054849290610891908490610ded565b92505081905550826001600160a01b0316846001600160a01b03167fddf252ad1be2c89b69c2b068fc378daa952ba7f163c4a11628f55a4df523b3ef846040516108db9190610dc0565b60405180910390a36108ee8484846109cb565b50505050565b60006109008284610e05565b9392505050565b3390565b6001600160a01b0383166109315760405162461bcd60e51b81526004016102b390610d00565b6001600160a01b0382166109575760405162461bcd60e51b81526004016102b390610b7d565b6001600160a01b0380841660008181526001602090815260408083209487168084529490915290819020849055517f8c5be1e5ebec7d5bd14f71427d1e84f3dd0314c0f7b2291e5b200ac8c7c3b925906109b2908590610dc0565b60405180910390a3505050565b60006109008284610ded565b505050565b80356001600160a01b038116811461065757600080fd5b6000602082840312156109f8578081fd5b610900826109d0565b60008060408385031215610a13578081fd5b610a1c836109d0565b9150610a2a602084016109d0565b90509250929050565b600080600060608486031215610a47578081fd5b610a50846109d0565b9250610a5e602085016109d0565b9150604084013590509250925092565b60008060408385031215610a80578182fd5b610a89836109d0565b946020939093013593505050565b600060208284031215610aa8578081fd5b5035919050565b6001600160a01b0391909116815260200190565b6001600160a01b03929092168252602082015260400190565b901515815260200190565b6000602080835283518082850152825b81811015610b1357858101830151858201604001528201610af7565b81811115610b245783604083870101525b50601f01601f1916929092016040019392505050565b60208082526023908201527f45524332303a207472616e7366657220746f20746865207a65726f206164647260408201526265737360e81b606082015260800190565b60208082526022908201527f45524332303a20617070726f766520746f20746865207a65726f206164647265604082015261737360f01b606082015260800190565b6020808252601c908201527f696e73756666696369656e742066756e6473206465706f736974656400000000604082015260600190565b60208082526026908201527f45524332303a207472616e7366657220616d6f756e7420657863656564732062604082015265616c616e636560d01b606082015260800190565b60208082526028908201527f45524332303a207472616e7366657220616d6f756e74206578636565647320616040820152676c6c6f77616e636560c01b606082015260800190565b60208082526018908201527f6e6f207769746864726177616c73207265717565737465640000000000000000604082015260600190565b60208082526025908201527f45524332303a207472616e736665722066726f6d20746865207a65726f206164604082015264647265737360d81b606082015260800190565b60208082526024908201527f45524332303a20617070726f76652066726f6d20746865207a65726f206164646040820152637265737360e01b606082015260800190565b6020808252601e908201527f756e617574686f72697a65643a2063616c6c6572206e6f742061646d696e0000604082015260600190565b60208082526025908201527f45524332303a2064656372656173656420616c6c6f77616e63652062656c6f77604082015264207a65726f60d81b606082015260800190565b90815260200190565b9283526020830191909152604082015260600190565b60ff91909116815260200190565b60008219821115610e0057610e00610e72565b500190565b600082821015610e1757610e17610e72565b500390565b600281046001821680610e3057607f821691505b60208210811415610e5157634e487b7160e01b600052602260045260246000fd5b50919050565b6000600019821415610e6b57610e6b610e72565b5060010190565b634e487b7160e01b600052601160045260246000fdfea264697066735822122015d85973c5db5df4950e483d7669e67f22ad62050c1c5765190bcea91d6d05fc64736f6c63430008000033",
  "immutableReferences": {},
  "source": "// SPDX-License-Identifier: MIT\npragma solidity ^ 0.8.0;\n\nimport '@openzeppelin/contracts/token/ERC20/ERC20.sol';\nimport '@openzeppelin/contracts/utils/math/SafeMath.sol';\n\n/// @title Token - ERC20 Token\n/// @author Naveed\n/// @notice This is an ERC20 token, allowing users to deposit & withdraw tokens.\n/// @dev Except standard ERC20 token's features, this smartcontract has two additional features through which\n//       token holders can deposit their tokens to admin and can their deposited tokens. \ncontract Token is ERC20 {\n  using SafeMath for uint256;\n  /// @notice account which handle users withdrawal requests\n  address public admin;\n  /// @notice count to track pending withdrawals\n  uint256 public pendingWithdrawals;\n\n  /// @notice mapping to track users deposits\n  /// @dev depositer address => total amount depositer has deposited\n  mapping (address => uint256) public deposits;\n\n  /// @notice mapping to track users withdraw requests\n  /// @dev withdrawId => Withdraw struct\n  mapping (uint256 => Withdraw) public withdraws;\n\n  /// @dev struct being used in above withdraws mapping, to manage Withdrawer information\n  struct Withdraw {\n    address withdrawer;\n    uint256 amount;\n  }\n\n  /// @dev constructor to initialize Token contract.\n  /// @param name_ name of ERC20 token\n  /// @param symbol_ symbol of token\n  /// @param supply_ total supply of token\n  constructor(string memory name_, string memory symbol_, uint256 supply_) ERC20(name_, symbol_) {\n    _mint(msg.sender, supply_);\n    admin = msg.sender;\n  }\n\n  /// @notice this function is to let token holder deposit his tokens to admin wallet/account.\n  /// @dev token holders can deposit as much tokens as he wants in more than one transactions. Total deposit amount gets updated each time.\n  /// @param amount amount of the tokens depositer want to deposit.\n  function deposit(uint256 amount) public {\n    // escrowing tokens by transferring to admin wallet\n    transfer(admin, amount);\n    deposits[msg.sender] = deposits[msg.sender].add(amount);\n    emit Deposit(msg.sender, amount);\n  }\n\n  /// @notice this function is to let token holder withdraw his tokens from admin wallet/account.\n  /// @dev token holders can withdraw as much tokens as he wants in more than one transactions.\n  /// @param amount amount of the tokens withdrawer want to withdraw\n  /// **** condition: withdrawer must have deposited enought tokens first.\n  function withdraw(uint256 amount) public {\n    require(deposits[msg.sender] >= amount, \"insufficient funds deposited\");\n    // _transfer(admin, msg.sender, amount);\n    pendingWithdrawals = pendingWithdrawals.add(1);\n    withdraws[pendingWithdrawals] = Withdraw(msg.sender,amount);\n    \n    emit Withdrawal(pendingWithdrawals, msg.sender, amount);\n  }\n\n  /// @notice this function is to let admin handle withdraw requests of withdrawers by sending them back their deposited amount as per their withdraw request.\n  /// @dev only admin can trigger this function.\n  /// @param batchSize number of withdraws to process\n  /// **** condition: withdraws must be requested first by users/withdrawers.\n  function handleWithdrawals(uint256 batchSize) onlyAdmin public {\n    require(pendingWithdrawals > 0, \"no withdrawals requested\");\n    uint256 from = pendingWithdrawals;\n\n    for (uint256 i = 0; i < batchSize; i++) {\n        _transfer(admin, withdraws[pendingWithdrawals].withdrawer, withdraws[pendingWithdrawals].amount);\n        delete withdraws[pendingWithdrawals];\n        pendingWithdrawals = pendingWithdrawals.sub(1);\n        if (pendingWithdrawals == 0){\n          break;\n        }\n    }\n    emit WithdrawalHandled(from, pendingWithdrawals, batchSize);\n  }\n/// @dev modifier to ensure caller is admin\n  modifier onlyAdmin() {\n    require(msg.sender == admin, \"unauthorized: caller not admin\");\n    _;\n  }\n\n  // Events\n  event Deposit(address indexed depositer, uint256 amount);\n  event Withdrawal(uint256 indexed id, address indexed withdrawer, uint256 amount);\n  event WithdrawalHandled(uint256 from, uint256 to, uint256 batchSize);\n}\n",
  "sourcePath": "/home/malik/Work/work/task/Token_SmartContract/contracts/Token.sol",
  "compiler": {
    "name": "solc",
    "version": "0.8.0+commit.c7dfd78e.Emscripten.clang"
  },
  "schemaVersion": "3.1.0",
  "updatedAt": "2022-01-23T13:27:42.781Z",
  "devdoc": {
    "author": "Naveed",
    "details": "Except standard ERC20 token's features, this smartcontract has two additional features through which",
    "kind": "dev",
    "methods": {
      "allowance(address,address)": {
        "details": "See {IERC20-allowance}."
      },
      "approve(address,uint256)": {
        "details": "See {IERC20-approve}. Requirements: - `spender` cannot be the zero address."
      },
      "balanceOf(address)": {
        "details": "See {IERC20-balanceOf}."
      },
      "constructor": {
        "details": "constructor to initialize Token contract.",
        "params": {
          "name_": "name of ERC20 token",
          "supply_": "total supply of token",
          "symbol_": "symbol of token"
        }
      },
      "decimals()": {
        "details": "Returns the number of decimals used to get its user representation. For example, if `decimals` equals `2`, a balance of `505` tokens should be displayed to a user as `5.05` (`505 / 10 ** 2`). Tokens usually opt for a value of 18, imitating the relationship between Ether and Wei. This is the value {ERC20} uses, unless this function is overridden; NOTE: This information is only used for _display_ purposes: it in no way affects any of the arithmetic of the contract, including {IERC20-balanceOf} and {IERC20-transfer}."
      },
      "decreaseAllowance(address,uint256)": {
        "details": "Atomically decreases the allowance granted to `spender` by the caller. This is an alternative to {approve} that can be used as a mitigation for problems described in {IERC20-approve}. Emits an {Approval} event indicating the updated allowance. Requirements: - `spender` cannot be the zero address. - `spender` must have allowance for the caller of at least `subtractedValue`."
      },
      "deposit(uint256)": {
        "details": "token holders can deposit as much tokens as he wants in more than one transactions. Total deposit amount gets updated each time.",
        "params": {
          "amount": "amount of the tokens depositer want to deposit."
        }
      },
      "handleWithdrawals(uint256)": {
        "details": "only admin can trigger this function.",
        "params": {
          "batchSize": "number of withdraws to process **** condition: withdraws must be requested first by users/withdrawers."
        }
      },
      "increaseAllowance(address,uint256)": {
        "details": "Atomically increases the allowance granted to `spender` by the caller. This is an alternative to {approve} that can be used as a mitigation for problems described in {IERC20-approve}. Emits an {Approval} event indicating the updated allowance. Requirements: - `spender` cannot be the zero address."
      },
      "name()": {
        "details": "Returns the name of the token."
      },
      "symbol()": {
        "details": "Returns the symbol of the token, usually a shorter version of the name."
      },
      "totalSupply()": {
        "details": "See {IERC20-totalSupply}."
      },
      "transfer(address,uint256)": {
        "details": "See {IERC20-transfer}. Requirements: - `recipient` cannot be the zero address. - the caller must have a balance of at least `amount`."
      },
      "transferFrom(address,address,uint256)": {
        "details": "See {IERC20-transferFrom}. Emits an {Approval} event indicating the updated allowance. This is not required by the EIP. See the note at the beginning of {ERC20}. Requirements: - `sender` and `recipient` cannot be the zero address. - `sender` must have a balance of at least `amount`. - the caller must have allowance for ``sender``'s tokens of at least `amount`."
      },
      "withdraw(uint256)": {
        "details": "token holders can withdraw as much tokens as he wants in more than one transactions.",
        "params": {
          "amount": "amount of the tokens withdrawer want to withdraw **** condition: withdrawer must have deposited enought tokens first."
        }
      }
    },
    "stateVariables": {
      "deposits": {
        "details": "depositer address => total amount depositer has deposited"
      },
      "withdraws": {
        "details": "withdrawId => Withdraw struct"
      }
    },
    "title": "Token - ERC20 Token",
    "version": 1
  },
  "userdoc": {
    "kind": "user",
    "methods": {
      "admin()": {
        "notice": "account which handle users withdrawal requests"
      },
      "deposit(uint256)": {
        "notice": "this function is to let token holder deposit his tokens to admin wallet/account."
      },
      "deposits(address)": {
        "notice": "mapping to track users deposits"
      },
      "handleWithdrawals(uint256)": {
        "notice": "this function is to let admin handle withdraw requests of withdrawers by sending them back their deposited amount as per their withdraw request."
      },
      "pendingWithdrawals()": {
        "notice": "count to track pending withdrawals"
      },
      "withdraw(uint256)": {
        "notice": "this function is to let token holder withdraw his tokens from admin wallet/account."
      },
      "withdraws(uint256)": {
        "notice": "mapping to track users withdraw requests"
      }
    },
    "notice": "This is an ERC20 token, allowing users to deposit & withdraw tokens.",
    "version": 1
  }
}